:100000000C942A000C9434000C9434000C943400AA
:100010000C9434000C9434000C9434000C94340090
:100020000C9434000C9434000C9434000C94340080
:100030000C9434000C9434000C9434000C94340070
:100040000C9434000C9434000C9434000C94340060
:100050000C94340011241FBECFE5D8E0DEBFCDBF25
:100060000E9464000C94B2000C940000DF93CF93C4
:1000700000D000D000D0CDB7DEB79E838D831C8228
:100080001B8212C01A82198205C089819A81019649
:100090009A83898389819A818F3F9105B0F38B81FF
:1000A0009C8101969C838B832D813E818B819C81D9
:1000B0008217930738F326960FB6F894DEBF0FBE6B
:1000C000CDBFCF91DF910895DF93CF9300D0CDB70F
:1000D000DEB7EAE3F0E08FEF80831A8219C0ABE36A
:1000E000B0E0EBE3F0E08081482F8A81282F30E0F8
:1000F00081E090E002C0880F991F2A95E2F7842BD7
:100100008C9384E690E00E9436008A818F5F8A8318
:100110008A81883020F384E690E00E94360087E0F0
:1001200089831CC0ABE3B0E0EBE3F0E08081482FB3
:100130008981282F332727FD309581E090E002C088
:10014000880F991F2A95E2F7809584238C9384E683
:1001500090E00E94360089818150898389818823BB
:080160000CF7BBCFF894FFCFB0
:00000001FF
