:100000000C942A000C9434000C9434000C943400AA
:100010000C9434000C9434000C9434000C94340090
:100020000C9434000C9434000C9434000C94340080
:100030000C9434000C9434000C9434000C94340070
:100040000C9434000C9434000C9434000C94340060
:100050000C94340011241FBECFE5D8E0DEBFCDBF25
:100060000E94C9000C94F1000C940000DF93CF9320
:1000700000D000D000D0CDB7DEB79E838D831C8228
:100080001B8212C01A82198205C089819A81019649
:100090009A83898389819A818F3F9105B0F38B81FF
:1000A0009C8101969C838B832D813E818B819C81D9
:1000B0008217930738F326960FB6F894DEBF0FBE6B
:1000C000CDBFCF91DF910895DF93CF9300D0CDB70F
:1000D000DEB79A838983ABE3B0E0EBE3F0E08081A5
:1000E000282F81E090E0098002C0880F991F0A94B0
:1000F000E2F7822B8C9384E690E00E9436000F900A
:100100000F90CF91DF910895DF93CF9300D0CDB7BB
:10011000DEB79A838983ABE3B0E0EBE3F0E0808164
:10012000282F81E090E0098002C0880F991F0A946F
:10013000E2F7809582238C9384E690E00E9436005B
:100140000F900F90CF91DF910895DF93CF93CDB7AC
:10015000DEB7ABE3B0E0EBE3F0E0808188608C9346
:1001600084E690E00E943600CF91DF910895DF93FE
:10017000CF93CDB7DEB7ABE3B0E0EBE3F0E0808147
:10018000877F8C9384E690E00E943600CF91DF91C8
:100190000895DF93CF930F92CDB7DEB7EAE3F0E097
:1001A0008FEF8083198211C08981882F90E00E948F
:1001B000640084E690E00E9436008981882F90E0F8
:1001C0000E94840089818F5F89838981833060F3F5
:1001D0000E94A50084E690E00E9436000E94B700CD
:0601E000E1CFF894FFCF0F
:00000001FF
